{
    "contractName": "HelloWorld",
    "abi": [
        {
            "inputs": [],
            "name": "get",
            "outputs": [
                {
                    "internalType": "uint256",
                    "name": "",
                    "type": "uint256"
                }
            ],
            "stateMutability": "view",
            "type": "function"
        }
    ],
    "bytecode": "6080604052348015600f57600080fd5b50607780601d6000396000f3fe6080604052348015600f57600080fd5b506004361060285760003560e01c80636d4ce63c14602d575b600080fd5b600860405190815260200160405180910390f3fea2646970667358221220b6a1c108d074d90caa46e08a97a8a5e6655fc03352d7c8b25f3fe63342bdaa3964736f6c634300080b0033",
    "sourcePath": "d:/MASTER/Pravna informatika/eArtRegister/contracts/hello_world.sol",
    "compiler": {
        "name": "solc",
        "version": "0.8.11+commit.d7f03943"
    },
    "functionHashes": {
        "get()": "6d4ce63c"
    },
    "gasEstimates": {
        "creation": {
            "codeDepositCost": "23800",
            "executionCost": "75",
            "totalCost": "23875"
        },
        "external": {
            "get()": "146"
        }
    }
}