{
    "contractName": "test",
    "abi": [
        {
            "inputs": [
                {
                    "internalType": "int256",
                    "name": "multiplier",
                    "type": "int256"
                }
            ],
            "stateMutability": "nonpayable",
            "type": "constructor"
        },
        {
            "inputs": [
                {
                    "internalType": "int256",
                    "name": "val",
                    "type": "int256"
                }
            ],
            "name": "multiply",
            "outputs": [
                {
                    "internalType": "int256",
                    "name": "d",
                    "type": "int256"
                }
            ],
            "stateMutability": "nonpayable",
            "type": "function"
        }
    ],
    "bytecode": "608060405234801561001057600080fd5b506040516101b23803806101b283398101604081905261002f91610037565b600055610050565b60006020828403121561004957600080fd5b5051919050565b6101538061005f6000396000f3fe608060405234801561001057600080fd5b506004361061002b5760003560e01c80631df4f14414610030575b600080fd5b61004361003e366004610069565b610055565b60405190815260200160405180910390f35b600080546100639083610098565b92915050565b60006020828403121561007b57600080fd5b5035919050565b634e487b7160e01b600052601160045260246000fd5b60006001600160ff1b03818413828413808216868404861116156100be576100be610082565b600160ff1b60008712828116878305891216156100dd576100dd610082565b600087129250878205871284841616156100f9576100f9610082565b8785058712818416161561010f5761010f610082565b50505092909302939250505056fea2646970667358221220c821a4fa2d9f2deb14e6b0483427b34a67522f0e44019399380b0b255d019ae564736f6c634300080b0033",
    "sourcePath": "d:/MASTER/Pravna informatika/eArtRegister/contracts/test.sol",
    "compiler": {
        "name": "solc",
        "version": "0.8.11+commit.d7f03943"
    },
    "functionHashes": {
        "multiply(int256)": "1df4f144"
    },
    "gasEstimates": {
        "creation": {
            "codeDepositCost": "67800",
            "executionCost": "infinite",
            "totalCost": "infinite"
        },
        "external": {
            "multiply(int256)": "2674"
        }
    }
}